:020000040800F2
:10000000A8400020A9010008971400081711000853
:1000100095140008B5020008E5150008000000006E
:100020000000000000000000000000009B14000819
:10003000B702000800000000991400089D14000891
:10004000C3010008C3010008C3010008C301000880
:10005000C3010008C3010008C3010008C301000870
:10006000C3010008C3010008C3010008C301000860
:10007000C3010008C3010008C3010008C301000850
:10008000C3010008C3010008C3010008000000000C
:10009000000000000000000000000000C301000894
:1000A000C301000841150008C3010008C30100088E
:1000B000C3010008C3010008C3010008C301000810
:1000C000C3010008C3010008C3010008C301000800
:1000D000C3010008C3010008C301000800000000BC
:1000E000C3010008C3010008C301000800000000AC
:1000F000000000000000000000000000C301000834
:1001000000000000C3010008C3010008C30100088B
:1001100000000000000000000000000000000000DF
:10012000C3010008C3010008C3010008C30100089F
:10013000C3010008000000000000000000000000F3
:10014000000000000000000000000000C3010008E3
:10015000C3010008C3010008C3010008C30100086F
:10016000C3010008C30100080000000000000000F7
:10017000000000000000000000000000000000007F
:1001800000000000C30100080000000000000000A3
:10019000C3010008DFF80CD000F07AF800480047EF
:1001A0005D160008A8400020064880470648004722
:1001B000FEE7FEE7FEE7FEE7FEE7FEE7FEE7FEE717
:1001C000FEE7FEE725150008950100082DE9F05F20
:1001D0000546002092469B468846064681464024B6
:1001E0001BE0284641464746224600F041F8534668
:1001F0005A46C01A914110D311461846224600F0C3
:1002000028F82D1A67EB01084F46224601200021ED
:1002100000F01FF817EB00094E41201EA4F1010465
:10022000DFDC484631462A464346BDE8F09FD2B25D
:1002300001E000F8012B491EFBD270470022F6E7CF
:1002400010B513460A4604461946FFF7F0FF20464C
:1002500010BD202A04DB203A00FA02F1002070478A
:100260009140C2F1200320FA03F3194390407047F4
:10027000202A04DB203A21FA02F00021704721FAFB
:1002800002F3D040C2F12002914008431946704762
:10029000064C074D06E0E06840F0010394E80700D3
:1002A00098471034AC42F6D3FFF778FFA016000849
:1002B000C0160008FEE770477047000070B504469E
:1002C00000F0D8F80546601C02D0044800780444C9
:1002D00000F0D0F8401BA042FAD370BD000000200F
:1002E0002DE9F84F00224FF0010803254FF00F0EC3
:1002F0000B6808FA02F42340A34271D14E68012E24
:1003000005D0022E03D0112E01D0122E15D18668F1
:10031000570005FA07FC26EA0C06D1F80CC00CFAC7
:1003200007FC4CEA060CC0F808C04668A6430C79E6
:10033000C4F30014944034434460C668570005FA7F
:1003400007FC8C6826EA0C06BC403443C4604C6849
:10035000022C01D0122C13D1D40800EB8404A34644
:10036000D4F8209054074FEAD46A0EFA0AF629EA24
:1003700006090E6906FA0AF646EA0906CBF8206075
:1003800004680E7924EA0C0406F00306BE402643F6
:1003900006604C68E40056D52E4C266846F480462C
:1003A0002660246822F0030604F4804400942A4C5A
:1003B0003444A446D4F808489607370F0EFA07F6D7
:1003C000B443264EB04201D1002615E0244EB0427F
:1003D00001D1012610E0234EB04202D102260BE0EB
:1003E00031E0214EB04201D1032605E01F4EB0425C
:1003F00001D1042600E00726BE402643CCF8086859
:100400001B4E34684F689C43FF0300D51C43346087
:10041000174E361D34684F689C43BF0300D51C43FC
:100420003460134E083634684F689C43FF0200D591
:100430001C4334600E4E0C3634684F689C43BF0238
:1004400000D51C433460521C102AFFF451AFBDE8A4
:10045000F88F0000443802400030014000000240A4
:100460000004024000080240000C0240001002405C
:10047000003C0140014880687047000000000020F7
:1004800070B5040025D094F83D00002520B984F80B
:100490003C50204600F0B4F9242084F83D00206848
:1004A000016821F0010101602068016841F4004108
:1004B00001602068016821F40041016000F018FB30
:1004C0004D4A6168914201D84C4900E04C4988424C
:1004D00001D2012070BD4B492368B0FBF1F15E6889
:1004E00026F03F060E435E606368934206D94FF4E0
:1004F000967359434FF47A73B1FBF3F12368491CA7
:100500001E6A26F03F06314319626168914210D895
:100510004900401EB0FBF1F2521CC2F30B02042A48
:1005200001D2042022E0B0FBF1F0401CC0F30B002C
:100530001CE0A268F2B301EBC10303EB0116431EFA
:10054000B3FBF6F35B1C43F480431B0549D092B325
:1005500001EBC10202EB0111401EB0FBF1F0401CA7
:10056000C0F30B0040F4804040F400402168CA69A9
:100570004CF6FF739A431043C861D4E90710014356
:100580002068026822F0C00211430160D4E903012F
:1005900001432068826848F2FF339A431143816027
:1005A000D4E9050108432168CA6822F0FF0210431C
:1005B000C86001E00EE016E02068016841F001012A
:1005C00001602564202084F83D00256384F83E50B6
:1005D000002070BD01EB4106431EB3FBF6F35B1C2C
:1005E000B3E70120C2E701EB4101401EB0FBF1F08F
:1005F000401CC0F30B00B7E7A086010080841E00FA
:1006000000093D0040420F002DE9FF4F83B09A469C
:10061000DDE9119793460446DDF84080FFF72AFF95
:10062000054694F83D00202870D119230122714914
:100630002046009500F006FE0028F5D194F83C0015
:10064000012863D0012084F83C0020680168C907B4
:1006500003D1016841F0010101602068016821F4C3
:1006600000610160222084F83D00402084F83E00B3
:1006700000262664C4F82480A4F82A90608D208582
:100680005D48E062CDE9007553465A46204604991C
:1006900000F05AFD00287CD1208DD0B1012821D056
:1006A0000228206824D0416980690090208D0328A9
:1006B00069D801282BD0514902283B464FF000024F
:1006C000009559D08846204600F0BCFD002860D136
:1006D0003CE02068416981690091016841F4007142
:1006E000016077E02068016821F480610160F0E733
:1006F000016821F4806101602068016841F40061B3
:100700000160206841698069009063E06FE02A46DB
:100710003946204600F015FE98BB20680069616AE2
:1007200008704EE02068016841F4007101602068A3
:100730000069616A0870606A401C6062218D491E10
:100740002185618D491E6185216838E02068016836
:1007500021F48061016020680069616A0870606A44
:10076000401C6062208D401E2085608D401E60858B
:100770003B46002241460095204600F063FD00B94B
:10078000D0E706E0FFE72A463946204600F0D9FDCB
:1007900018B1012007B0BDE8F08F20680069616AD8
:1007A0000870606A401C6062218D491E2185618D40
:1007B000491E618521684A69D24352070AD40969F2
:1007C0000170606A401C6062208D401E2085608D33
:1007D000401E6085208D00287FF468AF202084F8BB
:1007E0003D0084F83E6084F83C600020D2E702209F
:1007F000D0E70000020010000000FFFF040001002D
:1008000010B586B0044614216846FFF717FD13495A
:100810002068884220D11248016841F0020101603D
:100820000068694600F002000590C0200090122088
:1008300001900120029003200390042004900948B5
:10084000FFF74EFD06481030016841F400110160C9
:10085000006800F40010059006B010BD0054004080
:100860003038024000040240024881680278114496
:1008700081607047000000200B4810B5016841F40A
:1008800000710160016841F480610160016841F418
:1008900080710160032000F07FF8002000F006F86E
:1008A00000F024F8002010BD003C024070B50D4D52
:1008B00004464FF47A712878B1FBF0F00A490968D0
:1008C000B1FBF0F000F004FB48B9102C07D2002275
:1008D0002146501E00F040F800206C6070BD0120E1
:1008E00070BD0000000000200C0000200A4808B580
:1008F000016841F480410160006800F4804000908C
:100900000548001F016841F080510160006800F057
:100910008050009008BD00004438024000280DDBE4
:1009200000F01F02012191404009800000F1E02009
:10093000C0F88011BFF34F8FBFF36F8F704700284F
:1009400009DB00F01F02012191404009800000F105
:10095000E020C0F800117047F0B40E4B1B680C4645
:10096000C3F30223C3F10705042D00D90425191D83
:10097000072901D2002300E0DB1E012606FA05F15B
:10098000491E214099409E40761E16403143F0BCDE
:1009900000F044BE0CED00E0064900F007020868D4
:1009A0004FF6FF03184040EA0220034A1043086054
:1009B000704700000CED00E00000FA052DE9F0475B
:1009C0000E46050065D0DFF81481D8F80000F7B2B4
:1009D00000F00F00B04207D288F80070D8F800008D
:1009E00000F00F00B04254D128683D4C810712D569
:1009F000400703D5206840F4E050206028780007C5
:100A000003D5206840F4604020602068A96820F089
:100A1000F000084320602878C0072DD0304968686E
:100A20000839012812D0022813D0032811D00968F0
:100A3000890700292DDA216821F003010143216093
:100A4000FFF718FD814641F2883A0EE009688903F4
:100A5000EFE709688901ECE7FFF70CFDA0EB09015E
:100A6000514502D90320BDE8F0872068696800F08D
:100A70000C00B0EB810FEFD1D8F80010404601F028
:100A80000F01B14207D90770006800F00F00B042B3
:100A900001D00120E7E72878400705D52068E968FC
:100AA00020F4E050084320602878000706D520682D
:100AB000296920F4604040EAC100206000F028F875
:100AC0002168084AC1F30311515CC8400649086017
:100AD00006480068FFF7EAFE0020C4E7003C024039
:100AE00008380240881600080C000020040000208E
:100AF0000448054900680968044AC1F38221515C31
:100B0000C84070470C0000200838024098160008C2
:100B1000154810B5006810F00C02144813D01449A1
:100B2000042A0FD0082A0ED10F4C241F22682368F4
:100B300002F03F025B0207D52068C0F38810A0FBDB
:100B4000010106E0084610BD2168C1F38811A1FB30
:100B500000010023FFF73AFB2168C1F30141491C62
:100B60004900B0FBF1F010BD083802400024F40049
:100B7000001BB7002DE9F84F040076D02078DFF88D
:100B800038A3CE4DC00749D0DAF800105046C1F363
:100B90008101012908D00068C0F3810002280AD130
:100BA000281D0068400206D52868800336D5606895
:100BB0000028E2D032E06068B0F5803F10D0B0F598
:100BC000A02F286810D020F480302860286820F4F6
:100BD000802028606068A0B1FFF74CFC06460CE05E
:100BE000286840F48030F4E740F480202860F7E77C
:100BF000FFF740FC801B642873D828688003F7D572
:100C00000CE0FFF737FC064605E000BFFFF732FCBB
:100C1000801B6428F0D828688003F7D42078DFF898
:100C2000A08280074FF000093ED5DAF80010504648
:100C300011F00C0F09D00068C0F3810002280BD11D
:100C40009D48001F0068400206D42868800715D51B
:100C5000E068012809D111E0E068B8B10120C8F8C6
:100C60000000FFF707FC064605E020E1FFF702FC65
:100C7000801B0228C0D828688007F7D5286821691A
:100C800020F0F80040EAC10028600DE0C8F80090AC
:100C9000FFF7F0FB064604E0FFF7ECFB801B0228A1
:100CA0001FD828688007F7D42078000722D5824E05
:100CB000844861696C3671B101210160FFF7DAFB8C
:100CC000074604E0FFF7D6FBC01B022809D83068AE
:100CD0008007F7D50EE0C0F80090FFF7CBFB074682
:100CE00005E082E0FFF7C6FBC01B02287DD8306814
:100CF0008007F7D42078400768D5DFF8BCB100271B
:100D00000BF1380BDBF80000C0000BD4DBF800104F
:100D100041F08051CBF80010DBF80000012700F013
:100D200080500090684E3068C00510D4306840F4A0
:100D300080703060FFF79EFB009005E0FFF79AFBA4
:100D40000099401A022850D83068C005F6D55A4E8E
:100D5000A068683601280FD00528306810D020F030
:100D600001003060306820F004003060A068B8B145
:100D7000FFF780FB00900FE0306840F00100F4E7DF
:100D800040F004003060F7E7FFF774FB0099411A68
:100D900041F28830814266D830688007F4D50EE091
:100DA000FFF768FB009007E0FFF764FB0099411A2A
:100DB00041F28830814256D830688007F4D42FB190
:100DC000DBF8001021F08051CBF80010A069D0B3FF
:100DD000DAF800205146C2F38102022A4AD00228E2
:100DE000484607D0C8F8600000E03CE0FFF742FB4F
:100DF00004463BE04746C8F86000FFF73BFB064669
:100E000005E000BFFFF736FB801B02282BD82868BF
:100E10008001F7D4D4E907010843A16A2B4A4908A5
:100E200002EB0141626A41EA8211084394F82C10F6
:100E300040EA01612048001F016001203866FFF789
:100E400019FB044605E034E0FFF714FB001B022801
:100E500009D828688001F7D52BE000BFFFF70AFB0F
:100E6000001B022802D90320BDE8F88F2868800102
:100E7000F4D41EE00128F7D00868E26900F480018C
:100E8000914214D1226A00F03F0191420FD147F6FE
:100E9000C071626A0140914209D1A26A00F44031F6
:100EA000914204D1E16A00F07060884201D00120D3
:100EB000DAE70020D8E70000083802400038024096
:100EC00000004742800E4742007000400000FFFFD4
:100ED00010B5401EB0F1807F01D3012010BD4FF04E
:100EE000E02460610F21601700F098FB0020A061F2
:100EF00007202061002010BD7047704710B5040026
:100F000003D094F83D0010B107E0012010BD00208F
:100F100084F83C00204600F00DF8022084F83D00E3
:100F2000211D206800F012FB012084F83D00002004
:100F300010BD000008B500680B49884212D10B486B
:100F4000016841F4003101600068002200F40030C3
:100F5000009011461920FFF7FFFCBDE8084019205A
:100F6000FFF7EDBC08BD00000044014044380240DA
:100F70000168CA6842F00102CA600068816801F035
:100F80000701062903D0016841F00101016000203A
:100F90007047704770B50446006801694FF000055E
:100FA000C943890715D4C168C943890711D4E91E0B
:100FB000016101202077206880698007204602D0E7
:100FC000FFF7E7FF04E000F098F8204600F096F8FD
:100FD000257720680169C943490717D4C168C94307
:100FE000490713D46FF004010161022020772068C3
:100FF000806910F4407F204602D0FFF7CAFF04E06A
:1010000000F07BF8204600F079F825772068016928
:10101000C943090716D4C168C943090712D46FF040
:1010200008010161042020772068C06980072046FC
:1010300002D0FFF7AEFF04E000F05FF8204600F0BA
:101040005DF8257720680169C943C90617D4C168CE
:10105000C943C90613D46FF010010161082020773D
:101060002068C06910F4407F204602D0FFF791FF4E
:1010700004E000F042F8204600F040F825772068B0
:101080000169C943C90708D1C168C943C90704D167
:10109000891E0161204600F033F820680169C943C8
:1010A000090609D4C168C943090605D46FF0800157
:1010B00001612046FFF720FF20680169C943490606
:1010C00009D4C168C943490605D46FF040010161E4
:1010D000204600F01FF820680169C94389060BD437
:1010E000C168C943890607D46FF020010161204619
:1010F000BDE87040FFF701BF70BD7047704700004A
:10110000034900680968884201D100F06DBA704750
:10111000640000207047FEE701684A69D243520527
:101120000FD46FF480624A61002140F8301F202202
:1011300042738173026942F004020261017301206B
:1011400070470020704700002DE9F84F0446006802
:1011500089460B9D01689846174641F480610160FD
:101160002068016841F48071016000954FF0011B17
:101170000022594620460A9B00F064F84FF4007A9A
:1011800040B120680068C00501D5C4F840A0032024
:10119000BDE8F88F216809F0FE0008612B46284958
:1011A00020460A9A00F082F8F0BB20684169806905
:1011B00000902A4620460A9900F0F6F840B1206CCB
:1011C00004283AD12068016841F40071016034E0DC
:1011D000FEB2B8F1010F09D02168380A08612A4629
:1011E00020460A9900F0E0F80028E8D1206806615E
:1011F0002A4620460A9900F0D7F80028DFD1206857
:10120000016841F480710160009500225946204632
:101210000A9B00F017F80028B3D1216809F0FF00FD
:1012200040F00100086100E007E02B460449204639
:101230000A9A00F03BF80028AAD00120A8E7000095
:10124000020001002DE9F0471E4690460D46044677
:10125000C1F30747DDF8209008E0701C06D0FFF7C7
:1012600009F9A0EB0900B0420FD876B12068012F30
:1012700018D0806925EA00000004000C14D0002179
:101280004145EAD00020BDE8F087002044F8300F47
:1012900020216173A073216941F020012161207335
:1012A0000120F0E74069E5E70121E9E72DE9F04792
:1012B0009A4691460E46044600254FF02008C1F399
:1012C000074725E020684069C043400514D42068E2
:1012D000016841F40071016021686FF48060486129
:1012E000256384F83D8084F83E50206C40F0040073
:1012F000206484F83C501FE0B9F1FF3F08D0FFF7AD
:10130000B9F8A0EB0A0149450CD8B9F1000F09D092
:101310002068012F13D0806926EA00000004000C29
:101320000BD0CFE744F8305F84F80D80A5732069B7
:1013300040F02000206125730120BDE8F08740695E
:10134000EAE72DE9F041002590460E4604462027A5
:1013500017E04069C043C0060CD454F8301B6FF04E
:101360001000486144F810596777A577206A206219
:10137000257717E0FFF77EF8A0EB0800B04208D809
:101380003EB120684169C9434906E2D40020BDE866
:10139000F08144F8305F6773A573206940F0200046
:1013A000206125730120F2E770B516460D4604460C
:1013B0000DE02046FFF7B0FE08B1012070BD681CAB
:1013C00005D0FFF757F8801BA84207D835B1206831
:1013D0004069C0430006ECD4002070BD002044F8F2
:1013E000300F20216173A073216941F02001216138
:1013F0002073E2E7094808B5016841F08001016007
:10140000016801F080010091016841F00201016072
:10141000006800F00200009008BD00003038024073
:101420000D4810B50B4901600C49416000214FF493
:1014300080428160C0E9031241618161C161016242
:10144000FFF71EF8002803D0BDE81040FEF734BFB8
:1014500010BD00000054004010000020A0860100D4
:101460000B4810B5094901602921416000214FF462
:101470007A72C0E9021201618161FFF73FFD002825
:1014800003D0BDE81040FEF717BF10BD0044014077
:1014900064000020FEE7704770477047FFF7E4B92B
:1014A00030B593B030216846FEF7C8FE14210CA871
:1014B000FEF7C4FE19480025016841F08051016023
:1014C000006800F0805011901548016821F44041F7
:1014D00041F4004101600068022400F44040119092
:1014E00001200090000401908001CDE906400C200D
:1014F0000890A820CDE9090404200B906846FFF766
:1015000039FB0F20CDE90C048020CDE90E05012127
:101510000CA81095FFF752FA13B030BD40380240C6
:10152000007000400548016841F470010160034902
:101530004FF00060803908607047000088ED00E0DF
:101540000148FFF727BD000064000020F0B50268E5
:101550001D4B1E4C9F031E4D1E4E984207D0B84295
:1015600005D0A04203D0A84201D0B04204D122F05D
:10157000700C4A6842EA0C02984210D0B8420ED071
:10158000A0420CD0A8420AD0B04208D0124CA042CF
:1015900005D0124CA04202D0114CA04203D122F43B
:1015A0004074CA6822434C6922F0800222430260E0
:1015B0008A68C2620A688262984201D1096901633D
:1015C00001214161F0BD0000000001400004004025
:1015D00000080040000C0040004001400044014071
:1015E00000480140FEE700001FB500200390C8221C
:1015F000022103A88DE8070008230C226D2105486D
:10160000FFF702F84FF4FA70FEF758FE9FED020A5A
:101610001FBD000010000020000000000907090E97
:10162000002804DB00F1E02080F80014704700F08F
:101630000F0000F1E02080F8141D704702E008C898
:10164000121F08C1002AFAD170477047002001E03C
:1016500001C1121F002AFBD170470000FFF70CF9EF
:10166000FFF71EFF1920FFF759F9FFF7C3FEFFF739
:10167000D7FEFFF7F5FE0348FFF77AFC1920FFF7C6
:101680005EF9FEE76400002000000000000000009A
:101690000102030406070809000000000102030418
:1016A000C016000800000020100000003C160008D2
:1016B000D016000810000020984000004C160008CA
:1016C0000100000010000000000000000024F400F1
:040000050800019559
:00000001FF
